:1000000012C017C016C015C014C013C012C011C052
:1000100010C00FC00EC00DC00CC00BC00AC009C07C
:1000200008C007C006C011241FBECFEDCDBF02D04F
:1000300046C0E6CF8B988A988E9AB89A9698C09ABE
:1000400012C0829B12C08FE39CE90197F1F700C0B8
:100050000000839908C0829B06C0969AC098839935
:1000600002C08299FCCF839BECCF839B13C0829903
:1000700011C08FE39CE90197F1F700C00000839B5A
:10008000F2CF8299F0CF969AC09A839BECCF829B55
:10009000FCCFE9CF8399D2CF8299D0CF8FE39CE96F
:1000A0000197F1F700C000008399DDCF8299DBCF83
:1000B0009698C0988399D7CF829BFCCFD4CFF894E1
:0200C000FFCF70
:00000001FF
